{
  "transactions": [
    {
      "hash": "0x85641681c49a0b10eb90aa4c6402251f5b862fa145f1454ca7aa3d0d32c62132",
      "transactionType": "CREATE",
      "contractName": "SyncBlock",
      "contractAddress": "0x51120f019C5322c78Eabfcb1e751f9788dCa5B65",
      "function": null,
      "arguments": null,
      "transaction": {
        "type": "0x02",
        "from": "0xf453d05caa36823bb9f1520c812f223758154926",
        "gas": "0x2e180",
        "value": "0x0",
        "data": "0x60806040527a0f4159f0a7a75ccde1410bf8db747becd82c5b0daf1f43ddbb0a6d60005534801561002f57600080fd5b5061014b8061003f6000396000f3fe608060405234801561001057600080fd5b506004361061002b5760003560e01c8063ff63cad114610030575b600080fd5b6100566004803603602081101561004657600080fd5b50356001600160a01b031661006a565b604080519115158252519081900360200190f35b60008054600019430140908290828161007f57fe5b049050600081600114610093576000610096565b60015b9050846001600160a01b0316631d263f67826040518263ffffffff1660e01b8152600401808215158152602001915050602060405180830381600087803b1580156100e057600080fd5b505af11580156100f4573d6000803e3d6000fd5b505050506040513d602081101561010a57600080fd5b50519594505050505056fea26469706673582212205821903b2ddc51308ff59c4014dfd4b36149a1f18b75c6205dc797c37c86516764736f6c63430007000033",
        "nonce": "0x8",
        "accessList": []
      },
      "additionalContracts": [],
      "isFixedGasLimit": false
    },
    {
      "hash": "0x77ec5411d37b49b9ee2eaa4eb412c95758aab37739204f4987e0273b58f15433",
      "transactionType": "CALL",
      "contractName": "script/HackMeIfYouCan.s.sol:SyncBlock",
      "contractAddress": "0x51120f019C5322c78Eabfcb1e751f9788dCa5B65",
      "function": "tricheur(address)",
      "arguments": [
        "0xAf32e1287cc1d80635E6Fd39E969E79F5d519e16"
      ],
      "transaction": {
        "type": "0x02",
        "from": "0xf453d05caa36823bb9f1520c812f223758154926",
        "to": "0x51120f019c5322c78eabfcb1e751f9788dca5b65",
        "gas": "0xcdb1",
        "value": "0x0",
        "data": "0xff63cad1000000000000000000000000af32e1287cc1d80635e6fd39e969e79f5d519e16",
        "nonce": "0x9",
        "accessList": []
      },
      "additionalContracts": [],
      "isFixedGasLimit": false
    }
  ],
  "receipts": [
    {
      "transactionHash": "0x85641681c49a0b10eb90aa4c6402251f5b862fa145f1454ca7aa3d0d32c62132",
      "transactionIndex": "0x0",
      "blockHash": "0x5d0b9963cfe90bf4af9028fb46c64ec6af24db798476c86cbbd3b39188fe2f50",
      "blockNumber": "0x242cc45",
      "from": "0xF453D05cAA36823bb9f1520C812F223758154926",
      "to": null,
      "cumulativeGasUsed": "0x23f9d",
      "gasUsed": "0x23f9d",
      "contractAddress": "0x51120f019C5322c78Eabfcb1e751f9788dCa5B65",
      "logs": [],
      "status": "0x1",
      "logsBloom": "0x00000000000000000000000000000000000000000000000000000000000000000000000000000000000000000000000000000000000000000000000000000000000000000000000000000000000000000000000000000000000000000000000000000000000000000000000000000000000000000000000000000000000000000000000000000000000000000000000000000000000000000000000000000000000000000000000000000000000000000000000000000000000000000000000000000000000000000000000000000000000000000000000000000000000000000000000000000000000000000000000000000000000000000000000000000000",
      "type": "0x2",
      "effectiveGasPrice": "0xee6b2800"
    },
    {
      "transactionHash": "0x77ec5411d37b49b9ee2eaa4eb412c95758aab37739204f4987e0273b58f15433",
      "transactionIndex": "0x1",
      "blockHash": "0x5d0b9963cfe90bf4af9028fb46c64ec6af24db798476c86cbbd3b39188fe2f50",
      "blockNumber": "0x242cc45",
      "from": "0xF453D05cAA36823bb9f1520C812F223758154926",
      "to": "0x51120f019C5322c78Eabfcb1e751f9788dCa5B65",
      "cumulativeGasUsed": "0x2e299",
      "gasUsed": "0xa2fc",
      "contractAddress": null,
      "logs": [],
      "status": "0x1",
      "logsBloom": "0x00000000000000000000000000000000000000000000000000000000000000000000000000000000000000000000000000000000000000000000000000000000000000000000000000000000000000000000000000000000000000000000000000000000000000000000000000000000000000000000000000000000000000000000000000000000000000000000000000000000000000000000000000000000000000000000000000000000000000000000000000000000000000000000000000000000000000000000000000000000000000000000000000000000000000000000000000000000000000000000000000000000000000000000000000000000",
      "type": "0x2",
      "effectiveGasPrice": "0xee6b2800"
    }
  ],
  "libraries": [],
  "pending": [],
  "returns": {},
  "timestamp": 1738857299,
  "chain": 43113,
  "multi": false,
  "commit": "53d127c"
}