{
  "transactions": [
    {
      "hash": "0x9852e6076e111c89560c2ecee07deb3fd444152545f935d3ff3155e4e456732a",
      "transactionType": "CALL",
      "contractName": null,
      "contractAddress": "0x51120f019C5322c78Eabfcb1e751f9788dCa5B65",
      "function": "tricheur(address)",
      "arguments": [
        "0xAf32e1287cc1d80635E6Fd39E969E79F5d519e16"
      ],
      "transaction": {
        "type": "0x02",
        "from": "0xf453d05caa36823bb9f1520c812f223758154926",
        "to": "0x51120f019c5322c78eabfcb1e751f9788dca5b65",
        "gas": "0xcdb1",
        "value": "0x0",
        "data": "0xff63cad1000000000000000000000000af32e1287cc1d80635e6fd39e969e79f5d519e16",
        "nonce": "0xb",
        "accessList": []
      },
      "additionalContracts": [],
      "isFixedGasLimit": false
    }
  ],
  "receipts": [
    {
      "transactionHash": "0x9852e6076e111c89560c2ecee07deb3fd444152545f935d3ff3155e4e456732a",
      "transactionIndex": "0x0",
      "blockHash": "0xb60724a168109a4540a1ff39212629b52bd21522f4ce94baa3baae50fe25dc6f",
      "blockNumber": "0x242cc64",
      "from": "0xF453D05cAA36823bb9f1520C812F223758154926",
      "to": "0x51120f019C5322c78Eabfcb1e751f9788dCa5B65",
      "cumulativeGasUsed": "0xa2fc",
      "gasUsed": "0xa2fc",
      "contractAddress": null,
      "logs": [],
      "status": "0x1",
      "logsBloom": "0x00000000000000000000000000000000000000000000000000000000000000000000000000000000000000000000000000000000000000000000000000000000000000000000000000000000000000000000000000000000000000000000000000000000000000000000000000000000000000000000000000000000000000000000000000000000000000000000000000000000000000000000000000000000000000000000000000000000000000000000000000000000000000000000000000000000000000000000000000000000000000000000000000000000000000000000000000000000000000000000000000000000000000000000000000000000",
      "type": "0x2",
      "effectiveGasPrice": "0xee6b2800"
    }
  ],
  "libraries": [],
  "pending": [],
  "returns": {},
  "timestamp": 1738857580,
  "chain": 43113,
  "multi": false,
  "commit": "53d127c"
}