{
  "transactions": [
    {
      "hash": "0x1f454f5cc6a1b61aad7b819e4cf5648bd38e24d6ec1ba14c4eedd9d073f5e0de",
      "transactionType": "CALL",
      "contractName": null,
      "contractAddress": "0x51120f019C5322c78Eabfcb1e751f9788dCa5B65",
      "function": "tricheur(address)",
      "arguments": [
        "0xAf32e1287cc1d80635E6Fd39E969E79F5d519e16"
      ],
      "transaction": {
        "type": "0x02",
        "from": "0xf453d05caa36823bb9f1520c812f223758154926",
        "to": "0x51120f019c5322c78eabfcb1e751f9788dca5b65",
        "gas": "0xcdb1",
        "value": "0x0",
        "data": "0xff63cad1000000000000000000000000af32e1287cc1d80635e6fd39e969e79f5d519e16",
        "nonce": "0xc",
        "accessList": []
      },
      "additionalContracts": [],
      "isFixedGasLimit": false
    }
  ],
  "receipts": [],
  "libraries": [],
  "pending": [
    "0x1f454f5cc6a1b61aad7b819e4cf5648bd38e24d6ec1ba14c4eedd9d073f5e0de"
  ],
  "returns": {},
  "timestamp": 1738857645,
  "chain": 43113,
  "multi": false,
  "commit": "53d127c"
}